{
  "contractName": "Stake",
  "abi": [
    {
      "inputs": [
        {
          "internalType": "contract Token",
          "name": "_token",
          "type": "address"
        }
      ],
      "stateMutability": "payable",
      "type": "constructor",
      "payable": true
    },
    {
      "inputs": [
        {
          "internalType": "address",
          "name": "",
          "type": "address"
        }
      ],
      "name": "hasStaked",
      "outputs": [
        {
          "internalType": "bool",
          "name": "",
          "type": "bool"
        }
      ],
      "stateMutability": "view",
      "type": "function",
      "constant": true
    },
    {
      "inputs": [
        {
          "internalType": "address",
          "name": "",
          "type": "address"
        }
      ],
      "name": "isStaking",
      "outputs": [
        {
          "internalType": "bool",
          "name": "",
          "type": "bool"
        }
      ],
      "stateMutability": "view",
      "type": "function",
      "constant": true
    },
    {
      "inputs": [],
      "name": "owner",
      "outputs": [
        {
          "internalType": "address",
          "name": "",
          "type": "address"
        }
      ],
      "stateMutability": "view",
      "type": "function",
      "constant": true
    },
    {
      "inputs": [
        {
          "internalType": "uint256",
          "name": "",
          "type": "uint256"
        }
      ],
      "name": "stakers",
      "outputs": [
        {
          "internalType": "address",
          "name": "",
          "type": "address"
        }
      ],
      "stateMutability": "view",
      "type": "function",
      "constant": true
    },
    {
      "inputs": [
        {
          "internalType": "address",
          "name": "",
          "type": "address"
        }
      ],
      "name": "stakingBalance",
      "outputs": [
        {
          "internalType": "uint256",
          "name": "",
          "type": "uint256"
        }
      ],
      "stateMutability": "view",
      "type": "function",
      "constant": true
    },
    {
      "inputs": [],
      "name": "token",
      "outputs": [
        {
          "internalType": "contract Token",
          "name": "",
          "type": "address"
        }
      ],
      "stateMutability": "view",
      "type": "function",
      "constant": true
    },
    {
      "inputs": [],
      "name": "totalStaked",
      "outputs": [
        {
          "internalType": "uint256",
          "name": "",
          "type": "uint256"
        }
      ],
      "stateMutability": "view",
      "type": "function",
      "constant": true
    },
    {
      "inputs": [
        {
          "internalType": "uint256",
          "name": "_amount",
          "type": "uint256"
        }
      ],
      "name": "stakeTokens",
      "outputs": [],
      "stateMutability": "nonpayable",
      "type": "function"
    },
    {
      "inputs": [
        {
          "internalType": "uint256",
          "name": "_amount",
          "type": "uint256"
        }
      ],
      "name": "unstakeTokens",
      "outputs": [],
      "stateMutability": "nonpayable",
      "type": "function"
    },
    {
      "inputs": [],
      "name": "getTotalStaked",
      "outputs": [
        {
          "internalType": "uint256",
          "name": "",
          "type": "uint256"
        }
      ],
      "stateMutability": "view",
      "type": "function",
      "constant": true
    }
  ],
  "bytecode": "0x6080604052604051610eaa380380610eaa83398181016040528101906100259190610121565b33600160006101000a81548173ffffffffffffffffffffffffffffffffffffffff021916908373ffffffffffffffffffffffffffffffffffffffff160217905550806000806101000a81548173ffffffffffffffffffffffffffffffffffffffff021916908373ffffffffffffffffffffffffffffffffffffffff1602179055505061014e565b600080fd5b600073ffffffffffffffffffffffffffffffffffffffff82169050919050565b60006100dc826100b1565b9050919050565b60006100ee826100d1565b9050919050565b6100fe816100e3565b811461010957600080fd5b50565b60008151905061011b816100f5565b92915050565b600060208284031215610137576101366100ac565b5b60006101458482850161010c565b91505092915050565b610d4d8061015d6000396000f3fe608060405234801561001057600080fd5b506004361061009e5760003560e01c8063817b1cd211610066578063817b1cd2146101595780638da5cb5b14610177578063c93c8f3414610195578063fc0c546a146101c5578063fd5e6dd1146101e35761009e565b80630917e776146100a357806345bc78ab146100c1578063608e4dd0146100f15780636f49712b1461010d5780637547c7a31461013d575b600080fd5b6100ab610213565b6040516100b89190610872565b60405180910390f35b6100db60048036038101906100d691906108f0565b61021d565b6040516100e89190610872565b60405180910390f35b61010b60048036038101906101069190610949565b610235565b005b610127600480360381019061012291906108f0565b61049c565b6040516101349190610991565b60405180910390f35b61015760048036038101906101529190610949565b6104bc565b005b6101616107aa565b60405161016e9190610872565b60405180910390f35b61017f6107b0565b60405161018c91906109bb565b60405180910390f35b6101af60048036038101906101aa91906108f0565b6107d6565b6040516101bc9190610991565b60405180910390f35b6101cd6107f6565b6040516101da9190610a35565b60405180910390f35b6101fd60048036038101906101f89190610949565b61081a565b60405161020a91906109bb565b60405180910390f35b6000600354905090565b60046020528060005260406000206000915090505481565b6000600460003373ffffffffffffffffffffffffffffffffffffffff1673ffffffffffffffffffffffffffffffffffffffff168152602001908152602001600020549050600081116102bc576040517f08c379a00000000000000000000000000000000000000000000000000000000081526004016102b390610aad565b60405180910390fd5b808211156102ff576040517f08c379a00000000000000000000000000000000000000000000000000000000081526004016102f690610b19565b60405180910390fd5b60008054906101000a900473ffffffffffffffffffffffffffffffffffffffff1673ffffffffffffffffffffffffffffffffffffffff1663a9059cbb33846040518363ffffffff1660e01b815260040161035a929190610b39565b6020604051808303816000875af1158015610379573d6000803e3d6000fd5b505050506040513d601f19601f8201168201806040525081019061039d9190610b8e565b50816003546103ac9190610bea565b60038190555081600460003373ffffffffffffffffffffffffffffffffffffffff1673ffffffffffffffffffffffffffffffffffffffff168152602001908152602001600020546103fd9190610bea565b600460003373ffffffffffffffffffffffffffffffffffffffff1673ffffffffffffffffffffffffffffffffffffffff168152602001908152602001600020819055506000600660003373ffffffffffffffffffffffffffffffffffffffff1673ffffffffffffffffffffffffffffffffffffffff16815260200190815260200160002060006101000a81548160ff0219169083151502179055505050565b60066020528060005260406000206000915054906101000a900460ff1681565b600081116104ff576040517f08c379a00000000000000000000000000000000000000000000000000000000081526004016104f690610c6a565b60405180910390fd5b60008054906101000a900473ffffffffffffffffffffffffffffffffffffffff1673ffffffffffffffffffffffffffffffffffffffff166323b872dd3330846040518463ffffffff1660e01b815260040161055c93929190610c8a565b6020604051808303816000875af115801561057b573d6000803e3d6000fd5b505050506040513d601f19601f8201168201806040525081019061059f9190610b8e565b50806003546105ae9190610cc1565b60038190555080600460003373ffffffffffffffffffffffffffffffffffffffff1673ffffffffffffffffffffffffffffffffffffffff168152602001908152602001600020546105ff9190610cc1565b600460003373ffffffffffffffffffffffffffffffffffffffff1673ffffffffffffffffffffffffffffffffffffffff16815260200190815260200160002081905550600560003373ffffffffffffffffffffffffffffffffffffffff1673ffffffffffffffffffffffffffffffffffffffff16815260200190815260200160002060009054906101000a900460ff166106f7576002339080600181540180825580915050600190039060005260206000200160009091909190916101000a81548173ffffffffffffffffffffffffffffffffffffffff021916908373ffffffffffffffffffffffffffffffffffffffff1602179055505b6001600660003373ffffffffffffffffffffffffffffffffffffffff1673ffffffffffffffffffffffffffffffffffffffff16815260200190815260200160002060006101000a81548160ff0219169083151502179055506001600560003373ffffffffffffffffffffffffffffffffffffffff1673ffffffffffffffffffffffffffffffffffffffff16815260200190815260200160002060006101000a81548160ff02191690831515021790555050565b60035481565b600160009054906101000a900473ffffffffffffffffffffffffffffffffffffffff1681565b60056020528060005260406000206000915054906101000a900460ff1681565b60008054906101000a900473ffffffffffffffffffffffffffffffffffffffff1681565b6002818154811061082a57600080fd5b906000526020600020016000915054906101000a900473ffffffffffffffffffffffffffffffffffffffff1681565b6000819050919050565b61086c81610859565b82525050565b60006020820190506108876000830184610863565b92915050565b600080fd5b600073ffffffffffffffffffffffffffffffffffffffff82169050919050565b60006108bd82610892565b9050919050565b6108cd816108b2565b81146108d857600080fd5b50565b6000813590506108ea816108c4565b92915050565b6000602082840312156109065761090561088d565b5b6000610914848285016108db565b91505092915050565b61092681610859565b811461093157600080fd5b50565b6000813590506109438161091d565b92915050565b60006020828403121561095f5761095e61088d565b5b600061096d84828501610934565b91505092915050565b60008115159050919050565b61098b81610976565b82525050565b60006020820190506109a66000830184610982565b92915050565b6109b5816108b2565b82525050565b60006020820190506109d060008301846109ac565b92915050565b6000819050919050565b60006109fb6109f66109f184610892565b6109d6565b610892565b9050919050565b6000610a0d826109e0565b9050919050565b6000610a1f82610a02565b9050919050565b610a2f81610a14565b82525050565b6000602082019050610a4a6000830184610a26565b92915050565b600082825260208201905092915050565b7f7374616b696e672062616c616e63652063616e6e6f7420626520300000000000600082015250565b6000610a97601b83610a50565b9150610aa282610a61565b602082019050919050565b60006020820190508181036000830152610ac681610a8a565b9050919050565b7f696e73756666696369656e742062616c616e6365000000000000000000000000600082015250565b6000610b03601483610a50565b9150610b0e82610acd565b602082019050919050565b60006020820190508181036000830152610b3281610af6565b9050919050565b6000604082019050610b4e60008301856109ac565b610b5b6020830184610863565b9392505050565b610b6b81610976565b8114610b7657600080fd5b50565b600081519050610b8881610b62565b92915050565b600060208284031215610ba457610ba361088d565b5b6000610bb284828501610b79565b91505092915050565b7f4e487b7100000000000000000000000000000000000000000000000000000000600052601160045260246000fd5b6000610bf582610859565b9150610c0083610859565b925082821015610c1357610c12610bbb565b5b828203905092915050565b7f616d6f756e742063616e6e6f7420626520300000000000000000000000000000600082015250565b6000610c54601283610a50565b9150610c5f82610c1e565b602082019050919050565b60006020820190508181036000830152610c8381610c47565b9050919050565b6000606082019050610c9f60008301866109ac565b610cac60208301856109ac565b610cb96040830184610863565b949350505050565b6000610ccc82610859565b9150610cd783610859565b9250827fffffffffffffffffffffffffffffffffffffffffffffffffffffffffffffffff03821115610d0c57610d0b610bbb565b5b82820190509291505056fea2646970667358221220bf914342577651951c37a7f662f10df6b71808e59ca316be3493fbe98d3cf0c964736f6c634300080b0033",
  "immutableReferences": {},
  "source": "// SPDX-License-Identifier: MIT\r\npragma solidity >=0.4.22 <0.9.0;\r\n\r\nimport \"./Token.sol\";\r\n\r\ncontract Stake {\r\n    Token public token;\r\n\r\n    address public owner;\r\n    address[] public stakers;\r\n    \r\n    uint256 public totalStaked;\r\n\r\n    mapping(address => uint) public stakingBalance;\r\n    mapping(address => bool) public hasStaked;\r\n    mapping(address => bool) public isStaking;\r\n\r\n    constructor(Token _token) payable {\r\n        owner = msg.sender;\r\n        token = _token;\r\n    }\r\n\r\n    function stakeTokens(uint _amount) public {\r\n        require(_amount > 0, \"amount cannot be 0\");\r\n        token.transferFrom(msg.sender, address(this), _amount);\r\n        totalStaked = totalStaked + _amount;\r\n\r\n        stakingBalance[msg.sender] = stakingBalance[msg.sender] + _amount;\r\n        if(!hasStaked[msg.sender]) {\r\n            stakers.push(msg.sender);\r\n        }\r\n\r\n        isStaking[msg.sender] = true;\r\n        hasStaked[msg.sender] = true;\r\n    }\r\n\r\n    function unstakeTokens(uint _amount) public {\r\n        uint balance = stakingBalance[msg.sender];\r\n        require(balance > 0, \"staking balance cannot be 0\");\r\n        require(_amount <= balance, \"insufficient balance\");\r\n\r\n        token.transfer(msg.sender, _amount);\r\n        totalStaked = totalStaked - _amount;\r\n\r\n        stakingBalance[msg.sender] = stakingBalance[msg.sender] - _amount;\r\n        isStaking[msg.sender] = false;\r\n    }\r\n\r\n    function getTotalStaked() public view returns(uint) {\r\n        return totalStaked;\r\n    }\r\n}",
  "sourcePath": "C:\\Users\\Maarten\\Documents\\Projects\\Blockchain\\harmony_one\\hrc20-wallet\\contracts\\Stake.sol",
  "compiler": {
    "name": "solc",
    "version": "0.8.11+commit.d7f03943.Emscripten.clang"
  },
  "schemaVersion": "3.4.4",
  "updatedAt": "2022-01-28T08:27:42.317Z",
  "networkType": "ethereum",
  "devdoc": {
    "kind": "dev",
    "methods": {},
    "version": 1
  },
  "userdoc": {
    "kind": "user",
    "methods": {},
    "version": 1
  }
}